S01500006B69746368656E4C616D7056322E7372656317
S11300000EC01DC01CC01BC01AC019C018C017C028
S113001016C015C014C013C012C011C010C01124E2
S11300201FBECFE5D2E0DEBFCDBF20E0A0E6B0E04A
S113003001C01D92A136B207E1F792D0BAC0E0CF59
S113004088B3816088BB000000000000000088B312
S11300508E7F88BB0000000000000000000000004C
S11300600000000000000000089588B3816088BB90
S1130070000000000000000000000000000000007C
S1130080000088B38E7F88BB0000000000000000E1
S1130090000008950F931F93CF93DF938C0120E00A
S11300A030E002C0E2DF9E01E9012196C801880F19
S11300B0991F800F911F880F991F880F991F880F10
S11300C0991F2817390770F3DF91CF911F910F9172
S11300D008950F931F93CF93DF938C0120E030E0BA
S11300E002C0AEDF9E01E9012196C801880F991F65
S11300F0800F911F880F991F880F991F880F991FD0
S11301002817390770F3DF91CF911F910F9108954C
S113011080916000882319F0813089F01EC082E24A
S113012090E0B8DF81E0809360002FEF83ED90E3EF
S1130130215080409040E1F700C000000EC082E2F0
S113014090E0C7DF109260002FEF83ED90E3215021
S113015080409040E1F700C00000B29BFECF0895BC
S11301601092600087B3816087BB88B38E7F88BBA1
S11301702FEF89E698E1215080409040E1F700C0DC
S1130180000082E290E0A5DF2FEF89E698E121509C
S113019080409040E1F700C00000B29BB9DF2FEF30
S11301A080E792E0215080409040E1F700C00000D9
S10901B0F4CFF894FFCF28
S9030000FC
