S017000041546D656761333238505F746573742E73726563D2
S11300000C943E000C945B000C945B000C945B001D
S11300100C945B000C945B000C945B000C945B00F0
S11300200C945B000C945B000C945B000C945B00E0
S11300300C945B000C945B000C945B000C945D00CE
S11300400C945B000C945B000C945B000C945B00C0
S11300500C945B000C945B000C945B000C945B00B0
S11300600C945B000C945B00EE0001011C013C014C
S11300705F018101A601CB01EF01130211241FBE10
S1130080CFEFD8E0DEBFCDBF11E0A0E0B1E0E8EFF4
S1130090F4E002C005900D92A031B107D9F721E038
S11300A0A0E1B1E001C01D92A831B207E1F70E94BE
S11300B055020C947A020C9400001F920F920FB612
S11300C00F9211242F933F934F938F939F9380917B
S11300D01601909117014096909317018093160191
S11300E0883E934010F110921701109216018091EE
S11300F014019091150101969093150180931401B8
S1130100CC9799F410921501109214018091120168
S11301109091130101969093130180931201CC974F
S113012021F4109213011092120180911201909106
S1130130130144E6489F9001499F300D112480919A
S1130140140190911501820F931F909311018093D4
S1130150100116BC9F918F914F913F912F910F9059
S11301600FBE0F901F90189584E080936E008AEF65
S113017090E090938B0080938A008DE085BD85B5D7
S11301808D7F85BD16BC789408958CEF8AB98FE372
S113019084B98CE385B91BB80895CF93DF93EC0140
S11301A020E030E07BC18CE385B92130310519F4BE
S11301B085B1826085B9F901EE0FFF1FE050FF4F52
S11301C060817181CE010E9460026A30710508F07D
S11301D051C1FB01EC5CFF4F0C9474028CEF8BB9A2
S11301E095B1F901EE0FFF1FE85FFE4F8081809506
S11301F0892385B98FE99FE00197F1F700C00000DA
S11302004BC188E18BB955B1C901880F991FFC0115
S1130210E85FFE4F40814095452345B9FC01E0501D
S1130220FF4F80819181C81BD90B8FE99FE0019713
S1130230F1F700C0000030C18CE68BB985B1816054
S113024085B955B1C901880F991FFC01E85FFE4FBC
S113025040814095452345B9FC01E050FF4F808122
S11302609181880F991FC81BD90B8FE99FE00197D3
S1130270F1F700C0000010C18CE38BB985B1816037
S113028085B955B1C901880F991FFC01E85FFE4F7C
S113029040814095452345B9FC01E050FF4F8081E2
S11302A09181AC01440F551F840F951FC81BD90BB6
S11302B08FE99FE00197F1F700C00000EDC088E9E5
S11302C08BB985B1816085B955B1C901880F991F72
S11302D0FC01E85FFE4F40814095452345B9FC0190
S11302E0E050FF4F80819181880F991F880F991FDB
S11302F0C81BD90B8FE99FE00197F1F700C00000FC
S1130300CBC084EB8BB985B1816085B955B1C90186
S1130310880F991FFC01E85FFE4F408140954523FB
S113032045B9FC01E050FF4F80819181AC01440F3D
S1130330551F440F551F840F951FC81BD90B8FE9F8
S11303409FE00197F1F700C00000A6C084EF8BB9CD
S113035085B1816085B955B1C901880F991FFC0128
S1130360E85FFE4F40814095452345B9FC01E050CC
S1130370FF4F80819181AC01440F551F840F951F5D
S1130380880F991FC81BD90B8FE99FE00197F1F7DC
S113039000C0000081C08CE18BB955B1C901880F40
S11303A0991FFC01E85FFE4F40814095452345B904
S11303B0FC01E050FF4F40815181CA01880F991F11
S11303C0880F991F880F991F841B950BC81BD90B85
S11303D08FE99FE00197F1F700C000005DC08CEF4A
S11303E08BB985B1816085B955B1C901880F991F51
S11303F0FC01E85FFE4F40814095452345B9FC016F
S1130400E050FF4F80819181880F991F880F991FB9
S1130410880F991FC81BD90B8FE99FE00197F1F74B
S113042000C0000039C08CEB8BB985B1816085B9FF
S113043055B1C901880F991FFC01E85FFE4F408147
S11304404095452345B9FC01E050FF4F80819181DF
S1130450AC01440F551F440F551F440F551F840F03
S1130460951FC81BD90B8FE99FE00197F1F700C0D6
S1130470000012C08CEF8BB995B1F901EE0FFF1F8C
S1130480E85FFE4F80818095892385B98FE99FE0DD
S11304900197F1F700C000002F5F3F4F2430310572
S11304A008F481CEDF91CF9108950E94B4000E9498
S11304B0C50080911001909111010E94CD00F9CFE7
S11304C0AA1BBB1B51E107C0AA1FBB1FA617B70776
S11304D010F0A61BB70B881F991F5A95A9F7809592
S11304E09095BC01CD010895EE0FFF1F0590F49186
S10B04F0E02D0994F894FFCFFC
S11304F8E80364000A00010004000800100020005A
S9030000FC
