:100000000EC01DC01CC01BC01AC019C018C017C02C
:1000100016C015C014C013C012C011C010C01124E6
:100020001FBECFE5D2E0DEBFCDBF20E0A0E6B0E04E
:1000300001C01D92A136B207E1F76CD09FC0E0CF9E
:10004000C09A0000000000000000C09800000000FE
:1000500000000000000000000000000000000000A0
:100060000895C09A00000000000000000000000099
:10007000000000000000C098000000000000000028
:10008000000008950F931F93CF93DF9368E170E012
:1000900064D08C01C0E0D0E00C171D0719F0E1DF3F
:1000A0002196FACFDF91CF911F910F9108950F9371
:1000B0001F93CF93DF9368E170E04FD08C01C0E0D5
:1000C000D0E00C171D0719F0BBDF2196FACFDF91A6
:1000D000CF911F910F91089580916000882341F086
:1000E0008130A9F482E290E0E2DF1092600006C065
:1000F00082E290E0C7DF81E0809360002FEF83ED24
:1001000090E3215080409040E1F700C00000B29B96
:10011000FECF089510926000B89AC0982FEF89E63C
:1001200098E1215080409040E1F700C0000082E259
:1001300090E0BDDF2FEF89E698E1215080409040AC
:10014000E1F700C00000B29BC7DF2FEF80E792E02D
:10015000215080409040E1F7F4CF0024552704C09F
:10016000080E591F880F991F009729F076956795FB
:10017000B8F37105B9F7802D952F0895F894FFCF46
:00000001FF
