:0A0000000C944B000C9400000C94CB
:10000A0000000C9400000C9400000C9400000C9466
:10001A0000000C9400000C9400000C9400000C9456
:10002A0000000C9400000C9400000C9400000C9446
:10003A0000000C9400000C9400000C9400000C9436
:10004A0000000C9400000C9400000C9400000C9426
:10005A0000000C9400000C9400000C94000010277F
:10006A00E80364000A00010000100001100001000A
:10007A00FF0001002D4E414E00494E46000001008E
:10008A0006007A00010000037C000000F894EE27C5
:10009A00EFBBF1E0F5BFE5BF8DE0A2E0BB27ED9332
:1000AA008A95E9F780E098E0A0E0B1E0ED93019746
:1000BA00E9F7E8E8F0E085919591009761F0A5915C
:1000CA00B59105901590BF01F00105900D92019729
:1000DA00E1F7FB01F0CFE0E0EEBBEFEFEDBFE8E0C8
:1000EA00EEBFC0E0D3E00C947A00E4B1EC62E4B96C
:1000FA00E5B1E37DE5B9E0E5ECBDA0E012D033243B
:10010A00E8E03E1628F4440C43941BD03394F8CF0D
:10011A00E0E0E31520F4469414D03A94F9CFEFCFF7
:10012A00FFCF1A931A2F04D02A9A2A980C94A40063
:10013A001A931A2F1EBDEDB5E7FFFDCFEEB5199143
:10014A000895A42DEEDFA62DBB2700C0109639F026
:10015A00A89580EA9FE00197F1F71197C9F70895EA
:00000001FF
