S01E000041546D656761333238505F70726F6A6563745F6370702E73726563F2
S11300000C9434000C9451000C9451000C94510045
S11300100C9451000C9451000C9451000C94510018
S11300200C9451000C9451000C9451000C94510008
S11300300C9451000C9451000C94E5000C94510064
S11300400C9451000C9451000C94BF000C9451007A
S11300500C9451000C9451000C9451000C945100D8
S11300600C9451000C94510011241FBECFEFD8E022
S1130070DEBFCDBF11E0A0E0B1E0ECECF1E102C0E5
S113008005900D92A432B107D9F721E0A4E2B1E0C2
S113009001C01D92A533B207E1F70E944C010C94F4
S11300A0E4080C94000080932801609327014AB16E
S11300B021E030E0F90102C0EE0FFF1F8A95E2F75C
S11300C0C90102C0880F991F6A95E2F78E2B8095AB
S11300D084238AB98BB1A9010090280102C0440F7E
S11300E0551F0A94E2F70090270102C0220F331F24
S11300F00A94E2F7242B209528232BB989B190E0A8
S11301000090280102C0959587950A94E2F78170C2
S113011080932601089589B190E00090280102C0DF
S1130120959587950A94E2F7817029B130E00090A3
S1130130270102C0359527950A94E2F72170909122
S113014026018917D9F0821759F0209124013091A2
S113015025012D52310930932501209324010CC02F
S113016082130AC02091240130912501235D3F4F61
S113017030932501209324018093260108951F9232
S11301800F920FB60F9211242F933F934F935F93C7
S11301906F937F938F939F93AF93BF93EF93FF934B
S11301A08091C6000E946303FF91EF91BF91AF91CC
S11301B09F918F917F916F915F914F913F912F917B
S11301C00F900FBE0F901F9018951F920F920FB6AD
S11301D00F9211240F931F932F933F934F935F9389
S11301E06F937F938F939F93AF93BF93EF93FF93FB
S11301F0CF93DF93CDB7DEB76097DEBFCDBF8091DD
S11302002B0190912C01089690932C0180932B0143
S11302100E948B0080912B0190912C01883E934089
S113022001F510922C0110922B01809124019091E0
S113023025019F938F9380E291E09F938F931F9268
S113024080E18F938E010F5F1F4F1F930F930E94C6
S1130250EC05C8010E946A030FB6F894DEBF0FBE16
S1130260CDBF60960FB6F894DEBF0FBECDBFDF9151
S1130270CF91FF91EF91BF91AF919F918F917F911A
S11302806F915F914F913F912F911F910F910F901B
S11302900FBE0F901F90189582E884BD85E085BD40
S11302A016BC8CE787BD82E080936E00789480E86A
S11302B095E20E943B0367E086E00E94530025E03C
S11302C044E063E082E00E948301809124019091E4
S11302D025012091290130912A018217930761F0A9
S11302E0821B930B0E94EF018091240190912501C0
S11302F090932A01809329018FE39CE90197F1F7F8
S113030000C00000E2CF0F931F93CF93DF93E82F39
S1130310F0E0ADE2B1E01196FC93EE93E62FF0E04D
S11303201396FC93EE931297E42FF0E01596FC934A
S1130330EE931497E22FF0E01796FC93EE93169742
S11303409AB1E1E0F0E0EF0102C0CC0FDD1F8A9525
S1130350E2F78F0102C0000F111F6A95E2F7B8019E
S11303608F0102C0000F111F4A95E2F7A8018F0107
S113037002C0000F111F2A95E2F78C2F862B842BC5
S1130380802B892B8AB98BB1BF010C9002C0660FF8
S1130390771F0A94E2F7AF0112960C90129702C0ED
S11303A0440F551F0A94E2F79F0114960C9014977A
S11303B002C0220F331F0A94E2F716960C9002C073
S11303C0EE0FFF1F0A94E2F7462B242BE22BE09555
S11303D0E823EBB9DF91CF911F910F910895AF926C
S11303E0BF92CF92DF92EF92FF920F931F93CF931E
S11303F0DF93CDB7DEB7A0970FB6F894DEBF0FBE7C
S1130400CDBFBC0180E2E0E0F1E0DE011196019095
S11304100D928A95E1F7161617060CF08CC0072E7C
S1130420000C880B990B0E94A60428E539E344E3E9
S11304305FE30E9403040E949F050E947504A12C9F
S1130440B12CA616B70608F005C140E050E04430D0
S1130450510508F06CC080E090E084309105C0F54F
S1130460FA01EE0FFF1FEE0FFF1FE80FF91FEE0F4B
S1130470FF1F21E030E02C0F3D1FE20FF31F20810E
S11304803181232B89F01BB1FC01EE0FFF1FE35DCB
S1130490FE4F21E030E0008002C0220F331F0A9497
S11304A0E2F7212B2BB912C0EBB18C01000F111F05
S11304B0D801A35DBE4F21E030E00C9002C0220FB2
S11304C0331F0A94E2F720952E232BB90196C5CF4A
S11304D08FE39FE10197F1F700C000002BB1EDE23B
S11304E0F1E081E090E06C01008002C0CC0CDD1CE6
S11304F00A94E2F77C01028002C0EE0CFF1C0A940D
S1130500E2F78C01048002C0000F111F0A94E2F785
S1130510068002C0880F991F0A94E2F7EC280E297E
S1130520802B809582238BB94F5F5F4F90CF9FEFD5
S1130530A91AB90A86CF77230CF08CC0072E000CB9
S1130540880B990B0E94A604905828E539E344E3EC
S11305505FE30E9403040E949F050E947504A12C7E
S1130560B12CA616B70608F075C043E050E0552339
S11305700CF46CC080E090E084309105C0F5FA0181
S1130580EE0FFF1FEE0FFF1FE80FF91FEE0FFF1F07
S113059021E030E02C0F3D1FE20FF31F2081318159
S11305A0232B89F01BB1FC01EE0FFF1FE35DFE4F0F
S11305B021E030E0008002C0220F331F0A94E2F7EA
S11305C0212B2BB912C0EBB18C01000F111FD801E4
S11305D0A35DBE4F21E030E00C9002C0220F331F18
S11305E00A94E2F720952E232BB90196C5CF8FE309
S11305F09FE10197F1F700C000002BB1EDE2F1E0BB
S113060081E090E06C01008002C0CC0CDD1C0A94F7
S1130610E2F77C01028002C0EE0CFF1C0A94E2F7B0
S11306208C01048002C0000F111F0A94E2F70680B7
S113063002C0880F991F0A94E2F7EC280E29802B38
S1130640809582238BB94150510991CF9FEFA91A0C
S1130650B90A87CFA0960FB6F894DEBF0FBECDBF00
S1130660DF91CF911F910F91FF90EF90DF90CF908A
S1130670BF90AF900895BC0180E090E00E94A40474
S113068020E030E040E851E40E9432059B01AC01D7
S113069060E074E284E79BE40E94030420E030E01D
S11306A040E85FE30E9496030E949F050E94750440
S11306B07093C5006093C40088E98093C10086E00C
S11306C08093C20008959091C00095FFFCCF809361
S11306D0C6000895EF92FF920F931F93CF93DF9379
S11306E07C01C0E0D0E0F701EC0FFD1F808188237E
S11306F011F02196F8CF00E010E00C171D0748F424
S1130700F701E00FF11F80810E9463030F5F1F4F09
S1130710F4CF8DE00E9463038AE00E946303DF91BB
S1130720CF911F910F91FF90EF9008955058BB27E0
S1130730AA270E94AE030C94F8040E94EA0438F03D
S11307400E94F10420F039F49F3F19F426F40C942C
S1130750E7040EF4E095E7FB0C94E104E92F0E9412
S1130760090558F3BA17620773078407950720F041
S113077079F4A6F50C942B050EF4E0950B2EBA2F04
S1130780A02D0B01B90190010C01CA01A001112493
S1130790FF27591B99F0593F50F4503E68F11A163F
S11307A0F040A22F232F342F4427585FF3CF4695D0
S11307B037952795A795F0405395C9F77EF41F16F2
S11307C0BA0B620B730B840BBAF09150A1F0FF0FBC
S11307D0BB1F661F771F881FC2F70EC0BA0F621FA8
S11307E0731F841F48F4879577956795B795F79598
S11307F09E3F08F0B0CF9395880F08F09927EE0F2D
S11308009795879508950E9417040C94F8040E9404
S1130810F10458F00E94EA0440F029F45F3F29F003
S11308200C94E10451110C942C050C94E7040E94DF
S1130830090568F39923B1F3552391F3951B550BDF
S1130840BB27AA2762177307840738F09F5F5F4F9F
S1130850220F331F441FAA1FA9F335D00E2E3AF0DE
S1130860E0E832D091505040E695001CCAF72BD0F6
S1130870FE2F29D0660F771F881FBB1F2617370747
S11308804807AB07B0E809F0BB0B802DBF01FF2779
S113089093585F4F3AF09E3F510578F00C94E10471
S11308A00C942C055F3FE4F3983ED4F3869577953A
S11308B06795B795F7959F5FC9F7880F911D969532
S11308C0879597F90895E1E0660F771F881FBB1F8E
S11308D0621773078407BA0720F0621B730B840B3B
S11308E0BA0BEE1F88F7E09508950E94110588F071
S11308F09F5798F0B92F9927B751B0F0E1F0660FE0
S1130900771F881F991F1AF0BA95C9F714C0B13020
S113091091F00E942B05B1E008950C942B05672FEC
S1130920782F8827B85F39F0B93FCCF3869577954F
S11309306795B395D9F73EF4909580957095619538
S11309407F4F8F4F9F4F0895E89409C097FB3EF463
S113095090958095709561957F4F8F4F9F4F992308
S1130960A9F0F92F96E9BB279395F6958795779586
S11309706795B795F111F8CFFAF4BB0F11F460FF46
S11309801BC06F5F7F4F8F4F9F4F16C0882311F09E
S113099096E911C0772321F09EE8872F762F05C0B2
S11309A0662371F096E8862F70E060E02AF09A954D
S11309B0660F771F881FDAF7880F9695879597F942
S11309C0089597F99F6780E870E060E008959FEFCD
S11309D080EC089500240A941616170618060906D2
S11309E0089500240A9412161306140605060895A1
S11309F0092E0394000C11F4882352F0BB0F40F429
S1130A00BF2B11F460FF04C06F5F7F4F8F4F9F4F68
S1130A10089557FD9058440F551F59F05F3F71F0EA
S1130A204795880F97FB991F61F09F3F79F0879551
S1130A300895121613061406551FF2CF4695F1DFDA
S1130A4008C0161617061806991FF1CF869571056A
S1130A50610508940895E894BB2766277727CB019E
S1130A6097F908950E9445050C94F8040E94EA043D
S1130A7038F00E94F10420F0952311F00C94E10465
S1130A800C94E70411240C942C050E94090570F3BE
S1130A90959FC1F3950F50E0551F629FF001729F1F
S1130AA0BB27F00DB11D639FAA27F00DB11DAA1F2E
S1130AB0649F6627B00DA11D661F829F2227B00D7B
S1130AC0A11D621F739FB00DA11D621F839FA00D06
S1130AD0611D221F749F3327A00D611D231F849F56
S1130AE0600D211D822F762F6A2F11249F575040AD
S1130AF09AF0F1F088234AF0EE0FFF1FBB1F661F28
S1130B00771F881F91505040A9F79E3F510580F0F0
S1130B100C94E1040C942C055F3FE4F3983ED4F369
S1130B20869577956795B795F795E7959F5FC1F794
S1130B30FE2B880F911D9695879597F908950E942D
S1130B401105E8F09E37E8F09639B8F49E3848F479
S1130B50672F782F8827985FF9CF869577956795C3
S1130B6093959539D0F3B62FB1706B0F711D811D1C
S1130B7020F487957795679593950C94C3050C9409
S1130B80DE050C942C05882371F4772321F098500A
S1130B90872B762F07C0662311F499270DC0905137
S1130BA0862B70E060E02AF09A95660F771F881F05
S1130BB0DAF7880F9695879597F908959F3F31F056
S1130BC0915020F4879577956795B795880F911D77
S1130BD09695879597F90895AEE0B0E0E2EFF5E0D9
S1130BE00C94BB080D891E898F89988D26E02C836F
S1130BF01A83098397FF02C080E090E801979E83DF
S1130C008D83AE01455E5F4F698D7A8DCE0101966D
S1130C100E941C064D815E8157FD0AC02F813885D4
S1130C20421753070CF49A01F801E20FF31F1082E4
S1130C302E96E4E00C94D708ABE0B0E0E2E2F6E0F4
S1130C400C94AD086C017B018A01FC0117821682A9
S1130C50838181FFCCC1CE0101963C01F6019381D1
S1130C60F70193FD859193FF81917F01882309F416
S1130C70BAC1853239F493FD859193FF81917F0147
S1130C80853229F4B60190E00E941308E7CF912C35
S1130C90212C312CFFE1F315D8F08B3279F038F4A4
S1130CA0803279F08332A1F4232D20611DC08D326E
S1130CB061F0803369F4232D216016C0832D826096
S1130CC0382EE32DE4603E2E2AC0F32DF8601DC0BB
S1130CD037FC2DC020ED280F2A3040F08E32B9F4B5
S1130CE036FC81C1232D2064322E19C036FE06C085
S1130CF08AE0989E200D1124922E11C0EAE02E9EC7
S1130D00200D1124222EF32DF0623F2E08C08C36C4
S1130D1021F4832D8068382E02C0883641F4F7010F
S1130D2093FD859193FF81917F018111B3CF982F1A
S1130D309F7D9554933028F40C5F1F4F9FE3998354
S1130D400DC0833631F0833771F0833509F059C013
S1130D5021C0F801808189830E5F1F4F882483940A
S1130D60912C530113C02801F2E04F0E511CF801DD
S1130D70A080B18036FE03C0692D70E002C06FEF21
S1130D807FEFC5010E9408084C018201F32DFF7713
S1130D903F2E16C0280122E0420E511CF801A0800B
S1130DA0B18036FE03C0692D70E002C06FEF7FEFA3
S1130DB0C5010E94FD074C01F32DF0683F2E82010E
S1130DC033FC1BC0822D90E088169906B0F4B6015E
S1130DD080E290E00E9413082A94F4CFF50137FCD6
S1130DE0859137FE81915F01B60190E00E9413085E
S1130DF021102A9421E0821A91088114910471F738
S1130E00E8C0843611F0893641F5F80137FE07C091
S1130E1060817181828193810C5F1F4F08C0608162
S1130E207181072E000C880B990B0E5F1F4FF32D59
S1130E30FF763F2E97FF09C0909580957095619538
S1130E407F4F8F4F9F4FF0683F2E2AE030E0A30181
S1130E500E944F08882E861845C0853731F4232D0B
S1130E602F7EB22E2AE030E025C0932D997FB92E33
S1130E708F36C1F018F4883579F0B5C0803719F091
S1130E80883721F0B0C0E92FE061BE2EB4FE0DC05A
S1130E90FB2DF460BF2E09C034FE0AC0292F266042
S1130EA0B22E06C028E030E005C020E130E002C0E8
S1130EB020E132E0F801B7FE07C0608171818281D0
S1130EC093810C5F1F4F06C06081718180E090E0C8
S1130ED00E5F1F4FA3010E944F08882E8618FB2D1A
S1130EE0FF773F2E36FE0DC0232D2E7FA22E8914B0
S1130EF058F434FE0BC032FC09C0832D8E7EA82E1C
S1130F0005C0B82CA32C03C0B82C01C0B92CA4FE76
S1130F100FC0FE01E80DF11D8081803321F49A2D6C
S1130F20997EA92E09C0A2FE06C0B394B39404C04E
S1130F308A2D867809F0B394A3FC11C0A0FE06C0E4
S1130F40B21488F4280C922C9B180EC0B21460F4CE
S1130F50B60180E290E00E941308B394F7CFB21474
S1130F6018F42B1802C0982C212CA4FE10C0B60132
S1130F7080E390E00E941308A2FE17C0A1FC03C006
S1130F8088E790E002C088E590E0B6010CC08A2DA5
S1130F90867859F0A1FE02C08BE201C080E2A7FC72
S1130FA08DE2B60190E00E941308891438F4B6016A
S1130FB080E390E00E9413089A94F7CF8A94F30197
S1130FC0E80DF11D8081B60190E00E9413088110A4
S1130FD0F5CF222009F442CEB60180E290E00E94CF
S1130FE013082A94F6CFF6018681978102C08FEF09
S1130FF09FEF2B96E2E10C94C908FC010590615027
S113100070400110D8F7809590958E0F9F1F08951A
S1131010FC016150704001900110D8F780959095C3
S11310208E0F9F1F08950F931F93CF93DF93FB01A0
S1131030238121FD03C08FEF9FEF2CC022FF16C038
S113104046815781248135814217530744F4A08196
S1131050B1819D012F5F3F4F318320838C93268183
S113106037812F5F3F4F3783268314C08B01EC01F8
S1131070FB010084F185E02D0995892BE1F6D80167
S113108016968D919C911797019617969C938E9323
S11310901697CE01DF91CF911F910F910895FA0118
S11310A0AA27283051F1203181F1E8946F936E7FA3
S11310B06E5F7F4F8F4F9F4FAF4FB1E03ED0B4E094
S11310C03CD0670F781F891F9A1FA11D680F791FD5
S11310D08A1F911DA11D6A0F711D811D911DA11DE6
S11310E020D009F468943F912AE0269F11243019F6
S11310F0305D3193DEF6CF010895462F4770405D91
S11311004193B3E00FD0C9F7F6CF462F4F70405D3F
S11311104A3318F0495D31FD4052419302D0A9F79A
S1131120EACFB4E0A6959795879577956795BA9594
S1131130C9F700976105710508959B01AC010A2E5A
S113114006945795479537952795BA95C9F7620F31
S1131150731F841F951FA01D08952F923F924F92D5
S11311605F926F927F928F929F92AF92BF92CF9233
S1131170DF92EF92FF920F931F93CF93DF93CDB73C
S1131180DEB7CA1BDB0B0FB6F894DEBF0FBECDBFB4
S113119009942A88398848885F846E847D848C8485
S11311A09B84AA84B984C884DF80EE80FD800C818E
S11311B01B81AA81B981CE0FD11D0FB6F894DEBF71
S10F11C00FBECDBFED010895F894FFCFE1
S11311CC010000000000010000000000010001000B
S11311DC00000100010000000100010000000000FB
S10711EC2564000072
S9030000FC
