S0150000546865726D6F636F75706C654B2E73726563CD
S11300000C9434000C9451000C9451000C94510045
S11300100C9451000C9451000C9451000C94510018
S11300200C9451000C9451000C9451000C94510008
S11300300C9451000C9451000C9451000C945100F8
S11300400C9451000C9451000C9451000C945100E8
S11300500C9451000C9451000C9451000C945100D8
S11300600C9451000C94510011241FBECFEFD8E022
S1130070DEBFCDBF11E0A0E0B1E0E8E4FDE002C0E6
S113008005900D92AC30B107D9F721E0ACE0B1E0B6
S113009001C01D92AE30B207E1F70E94D8000C9463
S11300A0A2060C940000CF92DF92EF92FF921F936E
S11300B0CF93DF93C82FD92F162F69017A01CA0174
S11300C0B9010E9409027F936F9383E091E09F93AB
S11300D08F931F921F93DF93CF930E94AA03C701AC
S11300E0B6010E945E039B01AC01C701B6010E94E8
S11300F097016B017C018DB79EB708960FB6F894F3
S11301009EBF0FBE8DBF20E030E0A901C701B6013C
S11301100E940402882309F443C020E030E0A901CE
S1130120C701B6010E94040288237CF4F7FAF09414
S1130130F7F8F0940AC020E030E040E251E4C7014F
S1130140B6010E94F1026B017C01C701B6010E9455
S11301505E039B01AC01C701B6010E94970120E038
S113016030E0A9010E9404028111E5CFC701B60164
S11301700E9409027F936F93DF93CF9380E091E015
S11301809F938F931F921F93DF93CF930E94AA0391
S11301908DB79EB70A960FB6F8949EBF0FBE8DBF5B
S11301A0DF91CF911F91FF90EF90DF90CF90089552
S11301B0CF93DF93CDB7DEB760970FB6F894DEBF69
S11301C00FBECDBF8FEC90E00E9464010E941E011F
S11301D00E9425018823E1F00E9455019B01AC0196
S11301E08E010F5F1F4F80E1F80111928A95E9F7A4
S11301F060E1C8010E94530060E170E0C8010E9400
S11302007B018DE00E9474018AE00E9474010CC09D
S113021064E070E086E091E00E947B018DE00E9442
S113022074018AE00E947401FFEF23ED80E3F15032
S113023020408040E1F700C00000CACF8AB18C6042
S11302408AB98BB188608BB908958BB1877F8BB9DC
S113025040E050E020E030E00CC08BB184608BB90A
S1130260220F331F4C9921608BB18B7F8BB94F5F69
S11302705F4F403151058CF38BB188608BB922FDFF
S113028010C02F3F8FEF380771F0369527953695BC
S113029027953695279530930D0120930C0181E025
S11302A0089580E0089580E0089560910C017091B4
S11302B00D0180E090E00E943F0220E030E040E841
S11302C05EE30E94F10208959093C5008093C400F8
S11302D088E98093C100E0ECF0E080818260808353
S11302E08EE08093C20008959091C00095FFFCCFEA
S11302F08093C6000895EF92FF920F931F93CF93BC
S1130300DF937C018B01C0E0D0E007C0F701EC0F64
S1130310FD1F80810E9474012196C017D107B0F39C
S1130320DF91CF911F910F91FF90EF900895505856
S1130330BB27AA270E94AF010C94B7020E94A9020E
S113034038F00E94B00220F039F49F3F19F426F4EB
S11303500C94A6020EF4E095E7FB0C94A002E92F9E
S11303600E94C80258F3BA176207730784079507F7
S113037020F079F4A6F50C94EA020EF4E0950B2E25
S1130380BA2FA02D0B01B90190010C01CA01A001E3
S11303901124FF27591B99F0593F50F4503E68F13E
S11303A01A16F040A22F232F342F4427585FF3CF7F
S11303B0469537952795A795F0405395C9F77EF450
S11303C01F16BA0B620B730B840BBAF09150A1F099
S11303D0FF0FBB1F661F771F881FC2F70EC0BA0F1F
S11303E0621F731F841F48F4879577956795B795A7
S11303F0F7959E3F08F0B0CF9395880F08F09927A2
S1130400EE0F9795879508950E947C0208F481E089
S113041008950E9410026894B1110C94EB0208959F
S11304200E94D00288F09F5798F0B92F9927B751AE
S1130430B0F0E1F0660F771F881F991F1AF0BA9584
S1130440C9F714C0B13091F00E94EA02B1E00895F6
S11304500C94EA02672F782F8827B85F39F0B93FE8
S1130460CCF3869577956795B395D9F73EF4909537
S11304708095709561957F4F8F4F9F4F0895E894B5
S113048009C097FB3EF490958095709561957F4FD8
S11304908F4F9F4F9923A9F0F92F96E9BB27939586
S11304A0F695879577956795B795F111F8CFFAF496
S11304B0BB0F11F460FF1BC06F5F7F4F8F4F9F4FC7
S11304C016C0882311F096E911C0772321F09EE825
S11304D0872F762F05C0662371F096E8862F70E08B
S11304E060E02AF09A95660F771F881FDAF7880F65
S11304F09695879597F90895990F0008550FAA0BBB
S1130500E0E8FEEF16161706E807F907C0F0121622
S11305101306E407F50798F0621B730B840B950B25
S113052039F40A2661F0232B242B252B21F408957A
S11305300A2609F4A140A6958FEF811D811D089517
S113054097F99F6780E870E060E008959FEF80EC82
S1130550089500240A941616170618060906089525
S113056000240A9412161306140605060895092E8B
S11305700394000C11F4882352F0BB0F40F4BF2BFA
S113058011F460FF04C06F5F7F4F8F4F9F4F08953A
S113059057FD9058440F551F59F05F3F71F0479530
S11305A0880F97FB991F61F09F3F79F08795089515
S11305B0121613061406551FF2CF4695F1DF08C034
S11305C0161617061806991FF1CF86957105610551
S11305D008940895E894BB2766277727CB0197F9F9
S11305E008950E9404030C94B7020E94A90238F0F3
S11305F00E94B00220F0952311F00C94A0020C94F8
S1130600A60211240C94EB020E94C80270F3959F79
S1130610C1F3950F50E0551F629FF001729FBB27F5
S1130620F00DB11D639FAA27F00DB11DAA1F649F91
S11306306627B00DA11D661F829F2227B00DA11D44
S1130640621F739FB00DA11D621F839FA00D611DCA
S1130650221F749F3327A00D611D231F849F600DEB
S1130660211D822F762F6A2F11249F5750409AF014
S1130670F1F088234AF0EE0FFF1FBB1F661F771FA0
S1130680881F91505040A9F79E3F510580F00C946B
S1130690A0020C94EB025F3FE4F3983ED4F38695FA
S11306A077956795B795F795E7959F5FC1F7FE2B0B
S11306B0880F911D9695879597F908950E94920346
S11306C030F09F3710F40C94EB020C9469030C94F3
S11306D08403882371F4772321F09850872B762F95
S11306E007C0662311F499270DC09051862B70E042
S11306F060E02AF09A95660F771F881FDAF7880F53
S11307009695879597F908959F3F31F0915020F47D
S1130710879577956795B795880F911D96958795D9
S113072097F908950E94D002A0F0BEE7B91788F4A3
S1130730BB279F3860F41616B11D672F782F8827C2
S1130740985FF7CF869577956795B11D9395963900
S1130750C8F30895AEE0B0E0E0EBF3E00C94790662
S11307600D891E898F89988D26E02C831A8309832D
S113077097FF02C080E090E801979E838D83AE01CD
S1130780455E5F4F698D7A8DCE0101960E94DA0332
S11307904D815E8157FD0AC02F813885421753076A
S11307A00CF49A01F801E20FF31F10822E96E4E094
S11307B00C949506ABE0B0E0E0EEF3E00C946B062D
S11307C06C017B018A01FC0117821682838181FFFF
S11307D0CCC1CE0101963C01F6019381F70193FD52
S11307E0859193FF81917F01882309F4BAC18532F1
S11307F039F493FD859193FF81917F01853229F42A
S1130800B60190E00E94D105E7CF912C212C312C28
S1130810FFE1F315D8F08B3279F038F4803279F0B7
S11308208332A1F4232D20611DC08D3261F0803309
S113083069F4232D216016C0832D8260382EE32DA8
S1130840E4603E2E2AC0F32DF8601DC037FC2DC095
S113085020ED280F2A3040F08E32B9F436FC81C1E5
S1130860232D2064322E19C036FE06C08AE0989EDD
S1130870200D1124922E11C0EAE02E9E200D112489
S1130880222EF32DF0623F2E08C08C3621F4832DE6
S11308908068382E02C0883641F4F70193FD8591B3
S11308A093FF81917F018111B3CF982F9F7D955440
S11308B0933028F40C5F1F4F9FE399830DC0833658
S11308C031F0833771F0833509F059C021C0F80144
S11308D0808189830E5F1F4F88248394912C530158
S11308E013C02801F2E04F0E511CF801A080B18022
S11308F036FE03C0692D70E002C06FEF7FEFC501C3
S11309000E94C6054C018201F32DFF773F2E16C0CD
S1130910280122E0420E511CF801A080B18036FE6D
S113092003C0692D70E002C06FEF7FEFC5010E9424
S1130930BB054C01F32DF0683F2E820133FC1BC034
S1130940822D90E088169906B0F4B60180E290E01A
S11309500E94D1052A94F4CFF50137FC859137FE26
S113096081915F01B60190E00E94D10521102A9483
S113097021E0821A91088114910471F7E8C0843649
S113098011F0893641F5F80137FE07C060817181A5
S1130990828193810C5F1F4F08C060817181072E93
S11309A0000C880B990B0E5F1F4FF32DFF763F2E23
S11309B097FF09C090958095709561957F4F8F4FF3
S11309C09F4FF0683F2E2AE030E0A3010E940D06FD
S11309D0882E861845C0853731F4232D2F7EB22EFC
S11309E02AE030E025C0932D997FB92E8F36C1F0CF
S11309F018F4883579F0B5C0803719F0883721F0BC
S1130A00B0C0E92FE061BE2EB4FE0DC0FB2DF46032
S1130A10BF2E09C034FE0AC0292F2660B22E06C09C
S1130A2028E030E005C020E130E002C020E132E0FF
S1130A30F801B7FE07C060817181828193810C5FE8
S1130A401F4F06C06081718180E090E00E5F1F4FF0
S1130A50A3010E940D06882E8618FB2DFF773F2EDA
S1130A6036FE0DC0232D2E7FA22E891458F434FE99
S1130A700BC032FC09C0832D8E7EA82E05C0B82C75
S1130A80A32C03C0B82C01C0B92CA4FE0FC0FE01D6
S1130A90E80DF11D8081803321F49A2D997EA92ED1
S1130AA009C0A2FE06C0B394B39404C08A2D86780C
S1130AB009F0B394A3FC11C0A0FE06C0B21488F4DC
S1130AC0280C922C9B180EC0B21460F4B60180E27C
S1130AD090E00E94D105B394F7CFB21418F42B1808
S1130AE002C0982C212CA4FE10C0B60180E390E033
S1130AF00E94D105A2FE17C0A1FC03C088E790E0C4
S1130B0002C088E590E0B6010CC08A2D867859F0C1
S1130B10A1FE02C08BE201C080E2A7FC8DE2B60117
S1130B2090E00E94D105891438F4B60180E390E086
S1130B300E94D1059A94F7CF8A94F301E80DF11D30
S1130B408081B60190E00E94D1058110F5CF22206A
S1130B5009F442CEB60180E290E00E94D1052A94C5
S1130B60F6CFF6018681978102C08FEF9FEF2B9617
S1130B70E2E10C948706FC0105906150704001107D
S1130B80D8F7809590958E0F9F1F0895FC016150B2
S1130B90704001900110D8F7809590958E0F9F1F9B
S1130BA008950F931F93CF93DF93FB01238121FDBE
S1130BB003C08FEF9FEF2CC022FF16C046815781E0
S1130BC0248135814217530744F4A081B1819D01EA
S1130BD02F5F3F4F318320838C93268137812F5F92
S1130BE03F4F3783268314C08B01EC01FB01008443
S1130BF0F185E02D0995892BE1F6D80116968D91A2
S1130C009C911797019617969C938E931697CE01F5
S1130C10DF91CF911F910F910895FA01AA272830EF
S1130C2051F1203181F1E8946F936E7F6E5F7F4FB5
S1130C308F4F9F4FAF4FB1E03ED0B4E03CD0670F31
S1130C40781F891F9A1FA11D680F791F8A1F911D84
S1130C50A11D6A0F711D811D911DA11D20D009F4D4
S1130C6068943F912AE0269F11243019305D319316
S1130C70DEF6CF010895462F4770405D4193B3E0FF
S1130C800FD0C9F7F6CF462F4F70405D4A3318F0A6
S1130C90495D31FD4052419302D0A9F7EACFB4E057
S1130CA0A6959795879577956795BA95C9F700970F
S1130CB06105710508959B01AC010A2E06945795B0
S1130CC0479537952795BA95C9F7620F731F841F07
S1130CD0951FA01D08952F923F924F925F926F929D
S1130CE07F928F929F92AF92BF92CF92DF92EF92B8
S1130CF0FF920F931F93CF93DF93CDB7DEB7CA1B39
S1130D00DB0B0FB6F894DEBF0FBECDBF09942A8863
S1130D10398848885F846E847D848C849B84AA840B
S1130D20B984C884DF80EE80FD800C811B81AA8198
S1130D30B981CE0FD11D0FB6F894DEBF0FBECDBF63
S10B0D40ED010895F894FFCFC2
S10F0D4825732E2564004E6F6E650000BC
S9030000FC
