:100000000EC028C027C026C025C024C023C022C0DF
:1000100021C020C01FC01EC01DC01CC01BC0112499
:100020001FBECFE5D2E0DEBFCDBF10E0A0E6B0E05E
:10003000ECEDF3E002C005900D92AC36B107D9F7B4
:1000400020E0ACE6B0E001C01D92AD36B207E1F7AA
:1000500032D1C2C1D5CF81112FC0413089F018F003
:100060004230E1F0089527B381E090E001C0880FAD
:100070006A95EAF78095922F982397BB98B30CC0A6
:1000800027B381E090E001C0880F6A95EAF7922FCC
:10009000982B97BB98B3809589230DC027B381E037
:1000A00090E001C0880F6A95EAF7982F9095922307
:1000B00097BB98B3892B88BB0895811109C026B3DB
:1000C00081E090E001C0880F6A95EAF782230895E5
:1000D00080E0089582E088BB82E08A95F1F718BA43
:1000E00084E08A95F1F70000089580936C000895EC
:1000F000CF93DF93C0E0D0E080916C0090E068E1A6
:1001000070E059D1C817D90718F4E4DF2196F4CF6D
:10011000DF91CF910895811101C0DCCF82E088BBCF
:1001200084E08A95F1F718BA82E08A95F1F7000029
:100130000895CF92DF92EF92FF920F931F93CF9388
:10014000DF93E62ED72EC82ED0E080916C00D81712
:1001500078F5FD2C08E010E0C0E8FC1620F081E006
:10016000DADFFC1A01C0B6DFC69501501109A9F704
:10017000FE2C08E010E0C0E8FC1620F081E0CBDFA8
:10018000FC1A01C0A7DFC69501501109A9F7FC2C84
:1001900008E010E0C0E8FC1620F081E0BCDFFC1AAB
:1001A00001C098DFC69501501109A9F7DF5FCDCFD7
:1001B000DF91CF911F910F91FF90EF90DF90CF9043
:1001C0000895CF93DF93C0E080916C00C81708F0CA
:1001D0006FC0D8E080E09FDFD150E1F7D8E081E048
:1001E0009ADFD150E1F7D8E080E095DFD150E1F718
:1001F00081E091DFD7E080E08EDFD150E1F7D8E0F9
:1002000081E089DFD150E1F7D8E080E084DFD15090
:10021000E1F7D8E081E07FDFD150E1F7D8E081E07D
:100220007ADFD150E1F7D8E080E075DFD150E1F717
:10023000D8E081E070DFD150E1F7D8E080E06BDFFB
:10024000D150E1F7D8E080E066DFD150E1F7D8E0A7
:1002500081E061DFD150E1F7D8E080E05CDFD15090
:10026000E1F7D8E081E057DFD150E1F7D8E080E056
:1002700052DFD150E1F7D8E080E04DDFD150E1F717
:10028000D8E081E048DFD150E1F7D8E080E043DFFB
:10029000D150E1F781E03FDFD7E080E03CDFD15093
:1002A000E1F7D8E081E037DFD150E1F7C95F8CCFCB
:1002B000DF91CF910895CF93DF93CDB7DEB72C9721
:1002C0000FB6F894DEBF0FBECDBF8CE0E0E6F0E0E5
:1002D000DE01119601900D928A95E1F740E060E011
:1002E00080E0B9DE41E061E080E0B5DE2FEF31EE85
:1002F00084E0215030408040E1F700C0000082E2FD
:10030000F4DE9FEFE1EEF4E09150E040F040E1F7E1
:1003100000C0000056DF2FEF33E284EF2150304061
:100320008040E1F700C00000E3DE9FEFE4E3FCE083
:100330009150E040F040E1F700C0000010E000E024
:1003400060E080E0BADE8111FBCF0130D1F01430E3
:10035000A0F401E0010F812F90E063E070E02BD06A
:1003600021E030E02C0F3D1F820F931FFC016081C4
:1003700071818281DEDE102F02C023DF10E001E0F8
:1003800002C0B6DE00E0FFEF29E638E1F150204080
:100390003040E1F700C0000060E080E08EDE88239E
:1003A000D9F38FEF99E6E8E181509040E040E1F722
:1003B00000C00000C5CF0024552704C0080E591FF7
:1003C000880F991F009729F076956795B8F3710506
:0C03D000B9F7802D952F0895F894FFCF09
:0C03DC00FFFFFFFF000000FF000000FF1B
:00000001FF
