:100000000C9434000C9451000C9451000C94510049
:100010000C9451000C9451000C9451000C9451001C
:100020000C9451000C9451000C9451000C9451000C
:100030000C9451000C9451000C9451000C945100FC
:100040000C9451000C9451000C9453000C945100EA
:100050000C9451000C9451000C9451000C945100DC
:100060000C9451000C94510011241FBECFEFD8E026
:10007000DEBFCDBF11E0A0E0B1E0EAE1F6E002C0F2
:1000800005900D92A032B107D9F721E0A0E2B1E0CE
:1000900001C01D92A832B207E1F70E945D000C94E6
:1000A0000B030C9400001F920F920FB60F921124B5
:1000B0000F900FBE0F901F90189520E230E040E1A6
:1000C00050E068E070E084E090E00E948F008AE5F4
:1000D00090E00E94A8002FEF83ED90E32150804034
:1000E0009040E1F700C0000086EA9FEF0E94A80060
:1000F0002FEF83ED90E3215080409040E1F700C066
:10010000000084EB90E00E94A8002FEF83ED90E3C5
:10011000215080409040E1F700C00000D8CFE0E2DD
:10012000F1E08083918362837383448355832683C4
:1001300037839AB1862B842B822B892B8AB988B17D
:100140009081692B462B242B2095282328B90895CC
:100150001F93CF93DF93CDB7DEB7A0970FB6F89478
:10016000DEBF0FBECDBFBC0180E2E0E0F1E0DE010A
:10017000119601900D928A95E1F7161617060CF06C
:1001800061C0072E000C880B990B0E94320228E5F3
:1001900039E344E35FE30E948F010E94BE020E94A4
:1001A0000102A0E0B0E04AC0FA01EE0FFF1FEE0F1F
:1001B000FF1FE80FF91FEE0FFF1F21E030E02C0FAB
:1001C0003D1FE20FF31F20813181232B51F03BB102
:1001D000FC01EE0FFF1FE05EFE4F2081232B2BB9A9
:1001E0000AC03BB1FC01EE0FFF1FE05EFE4F208115
:1001F000209523232BB9019602C080E090E0843043
:10020000910590F28FE39FE10197F1F700C00000A4
:100210002BB1E0E2F1E01081828134819681812B63
:10022000832B892B809582238BB94F5F5F4F02C050
:1002300040E050E04430510500F31196A617B7078F
:10024000B8F363C077230CF060C0072E000C880B56
:10025000990B0E943202905828E539E344E35FE3AA
:100260000E948F010E94BE020E940102A0E0B0E045
:1002700049C0FA01EE0FFF1FEE0FFF1FE80FF91F35
:10028000EE0FFF1F21E030E02C0F3D1FE20FF31FA8
:1002900020813181232B51F03BB1FC01EE0FFF1F78
:1002A000E05EFE4F2081232B2BB90AC03BB1FC013D
:1002B000EE0FFF1FE05EFE4F2081209523232BB918
:1002C000019602C080E090E08430910590F28FE3C7
:1002D0009FE10197F1F700C000002BB1E0E2F1E0EF
:1002E0001081828134819681812B832B892B80958B
:1002F00082238BB94150510902C043E050E055239D
:100300000CF71196A617B707C0F3A0960FB6F8948E
:10031000DEBF0FBECDBFDF91CF911F9108950E9428
:10032000A3010C9484020E947D0258F00E94760280
:1003300040F029F45F3F29F00C946D0251110C94A8
:10034000B8020C9473020E94950268F39923B1F3EA
:10035000552391F3951B550BBB27AA2762177307EB
:10036000840738F09F5F5F4F220F331F441FAA1F7F
:10037000A9F335D00E2E3AF0E0E832D0915050403B
:10038000E695001CCAF72BD0FE2F29D0660F771FE9
:10039000881FBB1F261737074807AB07B0E809F0CF
:1003A000BB0B802DBF01FF2793585F4F3AF09E3F54
:1003B000510578F00C946D020C94B8025F3FE4F3A1
:1003C000983ED4F3869577956795B795F7959F5F97
:1003D000C9F7880F911D9695879597F90895E1E0E3
:1003E000660F771F881FBB1F621773078407BA0742
:1003F00020F0621B730B840BBA0BEE1F88F7E0959D
:1004000008950E949D0288F09F5798F0B92F992770
:10041000B751B0F0E1F0660F771F881F991F1AF0EF
:10042000BA95C9F714C0B13091F00E94B702B1E09B
:1004300008950C94B702672F782F8827B85F39F09A
:10044000B93FCCF3869577956795B395D9F73EF488
:1004500090958095709561957F4F8F4F9F4F089530
:10046000E89409C097FB3EF490958095709561954E
:100470007F4F8F4F9F4F9923A9F0F92F96E9BB2704
:100480009395F695879577956795B795F111F8CF80
:10049000FAF4BB0F11F460FF1BC06F5F7F4F8F4FEB
:1004A0009F4F16C0882311F096E911C0772321F0E1
:1004B0009EE8872F762F05C0662371F096E8862F79
:1004C00070E060E02AF09A95660F771F881FDAF7D0
:1004D000880F9695879597F9089597F99F6780E813
:1004E00070E060E008959FEF80EC089500240A9486
:1004F0001616170618060906089500240A941216FF
:100500001306140605060895092E0394000C11F431
:10051000882352F0BB0F40F4BF2B11F460FF04C0DE
:100520006F5F7F4F8F4F9F4F089557FD9058440F37
:10053000551F59F05F3F71F04795880F97FB991F42
:1005400061F09F3F79F087950895121613061406FF
:10055000551FF2CF4695F1DF08C01616170618068C
:10056000991FF1CF86957105610508940895E89467
:10057000BB2766277727CB0197F908950E949D0234
:10058000E8F09E37E8F09639B8F49E3848F4672FC3
:10059000782F8827985FF9CF8695779567959395FB
:1005A0009539D0F3B62FB1706B0F711D811D20F4FA
:1005B00087957795679593950C94E2020C94FD02CC
:1005C0000C94B802882371F4772321F09850872B7C
:1005D000762F07C0662311F499270DC09051862B02
:1005E00070E060E02AF09A95660F771F881FDAF7AF
:1005F000880F9695879597F908959F3F31F0915010
:1006000020F4879577956795B795880F911D9695F6
:0A061000879597F90895F894FFCF3D
:10061A0001000000000001000000000001000100CC
:10062A0000000100010000000100010000000000BC
:00000001FF
