:0C0000000C944B000C9400000C940000C9
:10000C000C9400000C9400000C9400000C94000064
:10001C000C9400000C9400000C9400000C94000054
:10002C000C9400000C9400000C9400000C94000044
:10003C000C9400000C9400000C9400000C94000034
:10004C000C9400000C9400000C9400000C94000024
:10005C000C9400000C9400000C9400001027E80392
:10006C0064000A00010000100001100001000000F3
:10007C0001002D4E414E00494E4600000100040087
:10008C007A00010000037C000000F894EE27EFBB1F
:10009C00F1E0F5BFE5BF8DE0A2E0BB27ED938A95BB
:1000AC00E9F780E098E0A0E0B1E0ED930197E9F783
:1000BC00E8E8F0E085919591009761F0A591B591F4
:1000CC0005901590BF01F00105900D920197E1F795
:1000DC00FB01F0CFE0E0EEBBEFEFEDBFE8E0EEBFF1
:1000EC00C0E0D3E00C947A00529A5A9853985B98DB
:1000FC0058D02197E9B1E883E095E870B9F0E42D88
:10010C00F0E0309749F4E1E04E2EA2E2B0E037D0B7
:10011C00A8EEB3E063D006C0E130A0E0FA0711F41A
:10012C0044243FD0E9B1E095E870E1F7A2E3B0E0F8
:10013C0055D02196DECFFFCF5A9A00000000000068
:10014C000000000000005A980000000000000000B1
:10015C0000000DC05A9A00000000000000000000D2
:10016C000000000000000000000000005A98000091
:10017C00000000000000000000000000089517D0EF
:10018C001BD020F4E7DF0F5F1F4FFACF07C00FD053
:10019C0013D020F4D1DF0F5F1F4FFACF1AD0249663
:1001AC000895A2E2B0E0F3DFA8EEB3E017C00CD0E4
:1001BC009D0100E010E00895A8E1A29FF001A39F2B
:1001CC00F00D0E171F0708953A932A931A930A936A
:1001DC0008953B812A81198108810895109639F080
:1001EC00A89580EA9FE00197F1F71197C9F7089558
:00000001FF
