S01400004C656453747269704C616D702E737265635F
S11300000EC028C027C026C025C024C023C022C0DB
S113001021C020C01FC01EC01DC01CC01BC0112495
S11300201FBECFE5D2E0DEBFCDBF20E0A6E6B0E044
S113003001C01D92AB36B207E1F710E0A0E6B0E0D4
S1130040ECEBF6E002C005900D92A636B107D9F7A5
S1130050B4D132C3D5CF811135C04130A1F018F0ED
S1130060423009F1089527B381E090E002C0880F7F
S1130070991F6A95E2F78095922F982397BB98B3BE
S1130080892388BB089527B381E090E002C0880FDC
S1130090991F6A95E2F7922F982B97BB98B3809596
S11300A0892388BB089527B381E090E002C0880FBC
S11300B0991F6A95E2F7982F9095922397BB98B36E
S11300C0892B88BB089581110AC026B381E090E092
S11300D002C0880F991F6A95E2F78223089580E091
S11300E00895809366000895695F08C0FA01E60FD9
S11300F0F11D982F91709083869561508230B0F7EE
S1130100FA01E60FF11D808308950F931F93CF9397
S1130110DF93062F182FEA0160E0872FE5DFAE0199
S113012068E0802FE1DFAE0160E1812FDDDFDF9148
S1130130CF911F910F91089581110BC082E088BB6C
S113014082E08A95F1F718BA84E08A95F1F7000005
S11301500895882351F082E088BB84E08A95F1F702
S113016018BA82E08A95F1F700000895CF93DF93DF
S1130170C0E0D0E003C080E0DFDF2196809166001C
S113018090E09C01220F331F820F931F880F991F49
S1130190880F991F880F991FC817D90760F3DF913B
S11301A0CF910895CF93DF93D0E098C080E0C4DF6F
S11301B0CF5F01C0C0E0C830C8F3C0E003C081E035
S11301C0BBDFCF5FC830D8F3C0E003C080E0B4DF4A
S11301D0CF5FC830D8F381E0AFDFC0E003C080E078
S11301E0ABDFCF5FC730D8F3C0E003C081E0A4DF4A
S11301F0CF5FC830D8F3C0E003C080E09DDFCF5F9D
S1130200C830D8F3C0E003C081E096DFCF5FC830C8
S1130210D8F3C0E003C081E08FDFCF5FC830D8F3EC
S1130220C0E003C080E088DFCF5FC830D8F3C0E00F
S113023003C081E081DFCF5FC830D8F3C0E003C0E2
S113024080E07ADFCF5FC830D8F3C0E003C080E03D
S113025073DFCF5FC830D8F3C0E003C081E06CDF48
S1130260CF5FC830D8F3C0E003C080E065DFCF5F64
S1130270C830D8F3C0E003C081E05EDFCF5FC83090
S1130280D8F3C0E003C080E057DFCF5FC830D8F3B5
S1130290C0E003C080E050DFCF5FC830D8F3C0E0D7
S11302A003C081E049DFCF5FC830D8F3C0E003C0AA
S11302B080E042DFCF5FC830D8F381E03DDFC0E0AB
S11302C003C080E039DFCF5FC730D8F3C0E003C09C
S11302D081E032DFCF5FC830D8F3D95F8091660008
S11302E0D81708F467CFDF91CF910895D0E016C0F6
S11302F080E022DFCF5F01C0C0E0C830C8F3C0E0B7
S113030003C081E019DFCF5FC830D8F3C0E003C079
S113031080E012DFCF5FC830D8F3DF5F80916600E2
S1130320D81750F32FEF89E698E121508040904090
S1130330E1F700C000001ADF2FEF89E698E12150B1
S113034080409040E1F700C00000D0CFCF92DF9210
S1130350EF920F931F93CF93DF936B01E82E88E105
S113036090E089D08C010097E9F088E1F8011192BE
S11303708A95E9F7A8018E2DB601C7DED0E00BC03F
S1130380F801EC0FF11D8081D7DECF5F01C0C0E022
S1130390C831B0F3DF5F80916600D817C0F3C8019D
S11303A002D103C0892B09F4A1DFDF91CF911F9102
S11303B00F91EF90DF90CF9008950FEF1BE9DBE9E9
S11303C040E060E080E047DE41E061E080E043DE61
S11303D02FEF84E39CE0215080409040E1F700C07F
S11303E0000082E27EDE2FEF84E39CE02150804017
S11303F09040E1F700C00000D5DE2FEF83E294EFD8
S1130400215080409040E1F700C00000AFDE2FEFA4
S113041084E39CE0215080409040E1F700C000005C
S1130420C0E060E080E04FDE8111FBCFCC2319F007
S1130430C13039F008C0602F712F8D2F87DFC1E0E4
S113044002C094DEC0E02FEF89E698E1215080409D
S11304509040E1F700C0000060E080E034DE8823D3
S1130460D9F32FEF89E698E1215080409040E1F7DD
S113047000C00000D6CF0F931F93CF93DF93823039
S1130480910510F482E090E0E0916900F0916A0037
S113049020E030E0A0E0B0E0309719F140815181D4
S11304A00281138148175907C8F08417950769F426
S11304B0109731F012960C93129713961C9327C041
S11304C00093690010936A0022C02115310519F0C8
S11304D04217530718F49A01BD01EF01DF01F80137
S11304E0DBCF21153105F9F0281B390B24303105F8
S11304F080F48A819B816115710521F0FB0193834E
S1130500828304C090936A0080936900FE0132964E
S113051044C0FE01E20FF31F8193919322503109ED
S1130520398328833AC02091670030916800232BD7
S113053041F420916200309163003093680020936D
S1130540670020916000309161002115310541F46C
S11305502DB73EB74091640050916500241B350BC4
S1130560E0916700F0916800E217F307A0F42E1BF6
S11305703F0B2817390778F0AC014E5F5F4F241703
S1130580350748F04E0F5F1F509368004093670093
S11305908193919302C0E0E0F0E0CF01DF91CF912D
S11305A01F910F910895CF93DF93009709F481C0B1
S11305B0FC01329713821282A0916900B0916A0003
S11305C0109781F420813181820F931F209167005D
S11305D0309168002817390751F5F0936800E093CB
S11305E0670067C0ED0120E030E0CE17DF0740F47C
S11305F04A815B819E0141155105F1F0EA01F5CF75
S1130600D383C28340815181840F951FC817D907B2
S113061059F488819981840F951F02969183808370
S11306208A819B81938382832115310529F4F09378
S11306306A00E09369003DC0E901FB83EA834991C4
S11306405991C40FD51FEC17FD0761F48081918186
S1130650840F951F0296E90199838883828193818F
S11306609B838A83E0E0F0E012968D919C9113972E
S1130670009719F0FD01DC01F7CF8D919C91119742
S11306809D012E5F3F4F820F931F20916700309191
S113069068002817390769F4309729F410926A0022
S11306A01092690002C013821282B0936800A09372
S10F06B06700DF91CF910895F894FFCF0C
S10906BC00006B002000A9
S9030000FC
