:100000001DC037C036C035C034C033C032C031C067
:1000100030C02FC0F0C32DC02CC02BC02AC005A8F3
:100020004CCDB2D44EB93836A9020C50B99186885D
:10003000083CA6AAAA2ABE000000803F11241FBEC9
:10004000CFE5D2E0DEBFCDBF10E0A0E6B0E0E8E94A
:10005000FDE002C005900D92A039B107D9F720E06C
:10006000A0E9B0E001C01D92AB39B207E1F731D38E
:1000700091C6C6CFA8B3F0E05BC0362F572F282F0C
:1000800090E819C0591760F0E2E0E8BBE4E0EA95B7
:10009000F1F718BAE2E0EA95F1F70000591B0AC03F
:1000A000E2E0E8BBE2E0EA95F1F718BAE4E0EA95AD
:1000B000F1F7000096959111E5CF90E819C0391736
:1000C00060F052E058BB54E05A95F1F718BAE2E0FC
:1000D000EA95F1F70000391B0AC052E058BB52E024
:1000E0005A95F1F718BAE4E0EA95F1F70000969511
:1000F0009111E5CF90E819C0291760F032E038BBC4
:1001000034E03A95F1F718BA52E05A95F1F7000049
:10011000291B0AC032E038BBE2E0EA95F1F718BAD1
:1001200034E03A95F1F7000096959111E5CFFF5F25
:10013000F41708F4A2CFA8BB0895E8B340E050E05C
:100140000CC092E098BB92E09A95F1F718BA94E04F
:100150009A95F1F700004F5F5F4F282F30E0B9010B
:10016000660F771F260F371F220F331F220F331FF3
:10017000220F331F4217530720F3E8BB0895CF9295
:10018000DF92EF92FF920F931F93CF93DF936C0157
:10019000EB01E8B2F12C74C0CF01880F991FE80F72
:1001A000F91FEC0DFD1D50817181328190E819C05D
:1001B000791760F082E088BB84E08A95F1F718BA7D
:1001C000A2E0AA95F1F70000791B0AC082E088BB83
:1001D000B2E0BA95F1F718BA84E08A95F1F7000019
:1001E00096959111E5CF90E819C0591760F082E01B
:1001F00088BBA4E0AA95F1F718BAB2E0BA95F1F776
:100200000000591B0AC082E088BB82E08A95F1F7A2
:1002100018BAA4E0AA95F1F7000096959111E5CFE0
:1002200090E819C0391760F082E088BBB4E0BA9555
:10023000F1F718BA82E08A95F1F70000391B0AC07D
:1002400082E088BBA2E0AA95F1F718BAB4E0BA95AB
:10025000F1F7000096959111E5CF6F5F01C060E066
:10026000E12FF0E0CE018E0F9F1FDC018C9168170B
:1002700008F492CF1F5F01C010E0141780F3F20E54
:10028000F016D0F3E8BADF91CF911F910F91FF9054
:10029000EF90DF90CF900895FF920F931F93CF932D
:1002A000DF93EC01FB01F8B200E073C0D901AA0FA3
:1002B000BB1F2A0F3B1FDE01A20FB31F2C9111960B
:1002C0003C91119712969C9180E819C0381760F004
:1002D00052E058BB54E05A95F1F718BA52E05A95DB
:1002E000F1F70000381B0AC052E058BB52E05A95A3
:1002F000F1F718BA54E05A95F1F70000869581118C
:10030000E5CF80E819C0281760F032E038BB34E050
:100310003A95F1F718BA52E05A95F1F70000281B08
:100320000AC032E038BB32E03A95F1F718BA54E02F
:100330005A95F1F7000086958111E5CF80E819C044
:10034000981760F022E028BB24E02A95F1F718BA4C
:1003500032E03A95F1F70000981B0AC022E028BB72
:1003600052E05A95F1F718BA24E02A95F1F7000007
:1003700086958111E5CF1F5F01C010E0212F30E08D
:10038000CF0163E070E0E6D42617370708F48ECF7C
:10039000060F041790F3F8BADF91CF911F910F91D8
:1003A000FF9008950F938091910081110BC080916F
:1003B0008D0090918E00A0918F004CE3BC018A2F9C
:1003C00059DE25C0883080F490E00197FC01EE0FE3
:1003D000FF1F8E0F9F1FFC01E858FF4F6081718146
:1003E00082814CE347DE13C0883039F44CE365E189
:1003F00070E088E790E050DF0AC0893041F40CE3F8
:1004000025E148E060E670E088E790E0B8DE0F9113
:100410000895809191008A3029F4109292001092F0
:10042000900008958B3029F4109292001092900061
:1004300008958C3021F4109292001092900008954B
:10044000AF92BF92CF92DF92EF92FF920F931F93E2
:10045000CF93DF93CDB7DEB7E0970FB6F894DEBF4A
:100460000FBECDBF809191008A3009F04FC08091BE
:100470009200873010F010929200DE01599685E1CB
:10048000FD0111928A95E9F785E1E8E7F0E0019036
:100490000D928A95E1F780E020C09E012F5F3F4FCB
:1004A00095E1F90111929A95E9F7CBA4DCA4EDA4AA
:1004B000C982DA82EB8292E1FE017996DE0114961E
:1004C00001900D929A95E1F795E1F901DE015996B7
:1004D00001900D929A95E1F78F5F909192008917A4
:1004E000E0F24CE365E170E0CE014996D5DE809103
:1004F00092008F5F80939200FFEF22E587E0F1503A
:1005000020408040E1F700C00000D2C08B3009F0ED
:1005100065C080919200833010F01092920080911B
:100520009000853110F010929000DE01599688E11C
:10053000FD0111928A95E9F785E1E8E7F0E0019085
:100540000D928A95E1F780E020C09E012F5F3F4F1A
:1005500098E1F90111929A95E9F795E1FE017996F2
:10056000DE01149601900D929A95E1F7CE88DF880E
:10057000E88CC982DA82EB8298E1F901DE015996B2
:1005800001900D929A95E1F78D5F909190008917F7
:10059000E0F26091920070E0660F771F660F771FA0
:1005A000660F771F605A7F4F0CE325E148E0CE01CC
:1005B0004996E5DD809192008F5F80939200809153
:1005C00090008F5F80939000FFEF22E587E0F1506D
:1005D00020408040E1F700C000006AC08C3009F084
:1005E00067C080919200873010F010929200609165
:1005F000900070E080E090E0D3D126E53EE049E451
:1006000050E45AD220E030E044E353E433D1BFD287
:100610006B017C018091920090E08C01000F111F12
:10062000080F191F08581F4FF801608170E080E023
:1006300090E0B4D19B01AC01C701B6013DD282D19B
:10064000B62EF801618170E080E090E0A7D19B01B7
:10065000AC01C701B60130D275D1A62EF801628176
:1006600070E080E090E09AD19B01AC01C701B60137
:1006700023D268D1862F4CE36B2D7A2DFBDC809141
:100680009000843B39F410929000809192008F5F2B
:1006900080939200809190008F5F80939000FFEF95
:1006A00023EF81E0F15020408040E1F700C00000DE
:1006B000E0960FB6F894DEBF0FBECDBFDF91CF91AD
:1006C0001F910F91FF90EF90DF90CF90BF90AF9070
:1006D000089587B38E7F87BB88B38E7F88BB87B32F
:1006E000826087BB88B38D7F88BB87B38B7F87BBD6
:1006F00088B3846088BB2FEF81EE94E02150804066
:100700009040E1F700C000004CE365E170E088E74D
:1007100090E0C2DD2FEF83E294EF215080409040C3
:10072000E1F700C000008CE308DD2FEF84E39CE0DC
:10073000215080409040E1F700C00000C0E086B347
:1007400080FD30C0CC2319F0C13041F016C081E0EB
:10075000C11180E0C82F26DE5CDE0FC081E0C11130
:1007600080E0C82F8CE3E9DC2FEF80E792E0215096
:1007700080409040E1F700C000002FEF89E698E14B
:10078000215080409040E1F700C00000B09BFECFB8
:100790002FEF89E698E1215080409040E1F700C0BA
:1007A0000000CDCF82FD22C080919100282F30E043
:1007B0002C3031051CF01092910003C08F5F8093A4
:1007C00091002FEF84E39CE0215080409040E1F7BE
:1007D00000C00000B29BFECF2FEF84E39CE02150CD
:1007E00080409040E1F700C00000A9CFCC2309F47D
:1007F000A6CF26DEA4CF1F920F920FB60F92112420
:100800002F933F934F935F936F937F938F939F9318
:10081000AF932091930030919400409195005091B6
:100820009600609197007091980080919900909146
:100830009A00A1E0A3D220939300309394004093B8
:100840009500509396006093970070939800809362
:10085000990090939A0012BEAF919F918F917F91D2
:100860006F915F914F913F912F910F900FBE0F901D
:100870001F9018950CD0E6C0DED040F0D5D030F0F7
:1008800021F45F3F19F0C7C0511110C1CAC0EBD0AD
:1008900098F39923C9F35523B1F3951B550BBB2747
:1008A000AA2762177307840738F09F5F5F4F220FF4
:1008B000331F441FAA1FA9F333D00E2E3AF0E0E8ED
:1008C00030D091505040E695001CCAF729D0FE2F39
:1008D00027D0660F771F881FBB1F261737074807CB
:1008E000AB07B0E809F0BB0B802DBF01FF27935881
:1008F0005F4F2AF09E3F510568F08DC0D7C05F3F23
:10090000ECF3983EDCF3869577956795B795F79568
:100910009F5FC9F7880F911D9695879597F9089560
:10092000E1E0660F771F881FBB1F621773078407FC
:10093000BA0720F0621B730B840BBA0BEE1F88F70B
:10094000E095089598D088F09F5790F0B92F992797
:10095000B751A0F0D1F0660F771F881F991F1AF0CA
:10096000BA95C9F712C0B13081F09FD0B1E00895B7
:100970009CC0672F782F8827B85F39F0B93FCCF338
:10098000869577956795B395D9F73EF490958095C0
:10099000709561957F4F8F4F9F4F0895E89409C0E0
:1009A00097FB3EF490958095709561957F4F8F4FA2
:1009B0009F4F9923A9F0F92F96E9BB279395F695B8
:1009C000879577956795B795F111F8CFFAF4BB0F36
:1009D00011F460FF1BC06F5F7F4F8F4F9F4F16C09A
:1009E000882311F096E911C0772321F09EE8872F24
:1009F000762F05C0662371F096E8862F70E060E0E0
:100A00002AF09A95660F771F881FDAF7880F969558
:100A1000879597F9089597F99F6780E870E060E0FF
:100A200008959FEF80EC089500240A941616170687
:100A300018060906089500240A94121613061406CF
:100A400005060895092E0394000C11F4882352F032
:100A5000BB0F40F4BF2B11F460FF04C06F5F7F4FEA
:100A60008F4F9F4F089557FD9058440F551F59F0D1
:100A70005F3F71F04795880F97FB991F61F09F3F8B
:100A800079F087950895121613061406551FF2CFB4
:100A90004695F1DF08C0161617061806991FF1CF04
:100AA00086957105610508940895E894BB2766272B
:100AB0007727CB0197F908950AD0C4CFB5DF28F086
:100AC000BADF18F0952309F0A6CFABCFEFCFCBDF7D
:100AD000A8F39923D9F35523C9F3950F50E0551F77
:100AE000AA27EE27FF27BB2700240894679520F448
:100AF000E20FF31FB41F0A1E220F331F441FAA1F49
:100B00006695A9F7779530F4F30FB41F0A1E121EED
:100B100008F46395330F441FAA1F221F769599F797
:100B2000879520F4B40F0A1E121E631F440FAA1FDC
:100B3000221F331F8695A9F7862F712D602D112452
:100B40009F5750408AF0E1F088234AF0EE0FFF1FD4
:100B5000BB1F661F771F881F91505040A9F79E3F0B
:100B6000510570F058CFA2CF5F3FECF3983EDCF315
:100B7000869577956795B795F795E7959F5FC1F748
:100B8000FE2B880F911D9695879597F908959F9351
:100B900005D00F9007FCEE5F28C043CF6CDFE8F371
:100BA000E894E0E0BB279F57F0F02AED3FE049ECE6
:100BB00006C0EE0FBB0F661F771F881F28F0B23AE2
:100BC00062077307840728F0B25A620B730B840B19
:100BD000E3959A9572F7803830F49A95BB0F661FAB
:100BE000771F881FD2F7904873C0EF93E0FF06C0CD
:100BF000A2EA2AED3FE049EC5FEB15D023DF0F902E
:100C0000039401FC9058EEE1F0E06EC00DDF30F08F
:100C100012DF20F031F49F3F11F41EF402CF0EF4E6
:100C2000E095E7FBF8CEE92F1EDF80F3BA176207E5
:100C300073078407950718F071F49EF536CF0EF40C
:100C4000E0950B2EBA2FA02D0B01B90190010C01DC
:100C5000CA01A0011124FF27591B99F0593F50F4F4
:100C6000503E68F11A16F040A22F232F342F44274C
:100C7000585FF3CF469537952795A795F040539544
:100C8000C9F77EF41F16BA0B620B730B840BBAF014
:100C90009150A1F0FF0FBB1F661F771F881FC2F77F
:100CA0000EC0BA0F621F731F841F48F48795779593
:100CB0006795B795F7959E3F08F0B3CF9395880F4A
:100CC00008F09927EE0F9795879508959F3F31F08B
:100CD000915020F4879577956795B795880F911D6A
:100CE0009695879597F908959F938F937F936F9328
:100CF000FF93EF939B01AC01DFDEEF91FF9105D0F5
:100D00002F913F914F915F91D7CEDF93CF931F9358
:100D10000F93FF92EF92DF927B018C01689405C0E4
:100D2000DA2EEF01D4DEFE01E894A59125913591EC
:100D300045915591AEF3EF0176DFFE019701A801D1
:100D4000DA9479F7DF90EF90FF900F911F91CF9198
:100D5000DF910895AA1BBB1B51E107C0AA1FBB1F4F
:100D6000A617B70710F0A61BB70B881F991F5A9537
:100D7000A9F780959095BC01CD0108950024A7FDA9
:100D800000942A0F301D401D501D601D701D801DD8
:080D9000901D0895F894FFCFB7
:100D98000303030303030300010303030303030221
:100DA8000203030303030301FF0000FF8000FFFFAA
:100DB8000000FF0000FFFF0000FF8000FFFFFFFFB3
:00000001FF
